:020000040000FA
:100000000030032015020000270200002902000032
:100010002B0200002D0200002F0200000000000053
:10002000000000000000000000000000310200009D
:10003000330200000000000035020000370200001B
:10004000390200003D0200004102000045020000AC
:10005000490200004D02000051020000550200005C
:10006000590200005D02000061020000650200000C
:10007000690200006D0200007102000075020000BC
:10008000790200007D02000081020000850200006C
:10009000890200008D02000091020000950200001C
:1000A000990200009D020000A1020000A5020000CC
:1000B000A9020000AD020000B1020000B50200007C
:1000C000B9020000BD020000C1020000C50200002C
:1000D000C9020000CD020000D1020000D5020000DC
:1000E000D9020000DD020000E1020000E50200008C
:1000F000E9020000ED020000F1020000F50200003C
:10010000F9020000FD0200000103000005030000E9
:10011000090300000D030000110300001503000097
:10012000190300001D030000210300002503000047
:1001300000000000000000000000000000000000BF
:1001400000000000000000000000000000000000AF
:10015000000000000000000000000000000000009F
:10016000000000000000000000000000000000008F
:10017000000000000000000000000000000000007F
:10018000000000000000000000000000000000006F
:10019000000000000000000000000000000000005F
:1001A000000000000000000000000000000000004F
:1001B000000000000000000000000000000000003F
:1001C000000000000000000000000000000000002F
:1001D000000000000000000000000000000000001F
:1001E000000000000000000000000000000000000F
:1001F00000000000000000000000000000000000FF
:10020000DFF80CD000F07EFA00480047F12D000026
:100210000030032072B6454880F30A88444880477E
:1002200062B644480047FEE7FEE7FEE7FEE7FEE76A
:10023000FEE7FEE7FEE7FEE73F4800473F4800478E
:100240003F4800473F4800473F4800473F48004776
:100250003F4800473F4800473F4800473F48004766
:100260003F4800473F4800473F4800473F48004756
:100270003F4800473F4800473F4800473F48004746
:100280003F4800473F4800473F4800473F48004736
:100290003F4800473F4800473F4800473F48004726
:1002A0003F4800473F4800473F4800473F48004716
:1002B0003F4800473F4800473F4800473F48004706
:1002C0003F4800473F4800473F4800473F480047F6
:1002D0003F4800473F4800473F4800473F480047E6
:1002E0003F4800473F4800473F4800473F480047D6
:1002F0003F4800473F4800473F4800473F480047C6
:100300003F4800473F4800473F4800473F480047B5
:100310003F4800473F4800473F4800473F480047A5
:100320003F4800473F480047FEE70000002C0320FD
:10033000D12700000102000029030000290300006A
:1003400029030000290300002903000029030000FD
:1003500029030000290300002903000029030000ED
:1003600029030000290300002903000029030000DD
:1003700085170000DD170000351800008D180000FB
:10038000E51800003D19000095190000ED19000066
:1003900029030000290300002903000029030000AD
:1003A000290300002903000029030000290300009D
:1003B000290300002903000029030000290300008D
:1003C000290300002903000029030000290300007D
:1003D000290300002903000029030000290300006D
:1003E000290300002903000029030000290300005D
:1003F000290300002903000029030000290300004D
:10040000290300002903000029030000290300003C
:10041000290300002903000029030000290300002C
:100420002903000029030000D2B201E000F8012BEB
:10043000491EFBD270470022F6E710B513460A4664
:1004400004461946FFF7F0FF204610BD421C10F885
:10045000011B0029FBD1801A70472DE9FE4F81EA6C
:10046000030404F0004421F0004100944FF0000B1D
:1004700023F0004350EA01045ED052EA03045BD04B
:10048000C3F30A54C1F30A552C44A4F2F334019483
:10049000A0FB0254C1F3130141F48011C3F3130311
:1004A00043F4801301FB024400FB034E840A970AC5
:1004B00044EA815447EA8357A4FB076802958D0AF2
:1004C00005FB07854FEA932C04FB0C542705029D7E
:1004D0004FEA065847EA1637B5EB08056EEB070CEE
:1004E000870E920E47EA811742EA8312A7FB0201A8
:1004F000B6EB0B0164EB00042B0D43EA0C335E18E2
:1005000044EB1C50DA465146E7FB0201C5F31304E5
:100510004FEA0B3343EA14534FEA0432019C43EA97
:100520000603A4F10C040294009CCDE900B400F091
:100530009AF803B0BDE8F08F00200146F9E700F01B
:10054000004230F000400AD0C10D01F56071C0F3E7
:10055000160042EA0151C2084007114370470020CB
:100560000146704701F0004330B421F0004150EAE9
:10057000010206D00A0DA2F56072C1F31301002A30
:1005800002DC30BC00207047440F44EAC104C100C3
:10059000E01830BC00EBC25000F01FB8202A04DB8A
:1005A000203A00FA02F1002070479140C2F1200386
:1005B00020FA03F3194390407047202A04DB203AC5
:1005C00021FA02F00021704721FA02F3D040C2F173
:1005D000200291400843194670470029A8BF704780
:1005E000401C490008BF20F00100704710B4B0FA69
:1005F00080FC00FA0CF050EA010404BF10BC704704
:1006000049B1CCF1200421FA04F411FA0CF118BF1D
:10061000012121430843A3EB0C01CB1D4FEA0061EC
:100620004FEA102042BF002010BC704700EBC350BF
:1006300010440029A4BF10BC7047401C490008BFEB
:1006400020F0010010BC704710B5141E73F10004B7
:1006500008DA401C41F1000192185B411A4301D1B4
:1006600020F0010010BD2DE9F04D92469B4611B1DE
:10067000B1FA81F202E0B0FA80F220329046FFF740
:100680008DFF04460F4640EA0A0041EA0B0153463B
:100690005A46084313D0114653EA010019D0C8F155
:1006A00040025046FFF789FF05460E465046594620
:1006B0004246FFF773FF084305D0012004E02046BF
:1006C0003946BDE8F08D0020054346EAE0762C432C
:1006D00037430A986305E40AA0EB08000022FD0AEC
:1006E00044EA47540A3002D500200146E9E70105F3
:1006F00010196941DDE9084500196941BDE8F04D6F
:10070000A2E70000064C074D06E0E06840F0010358
:1007100094E8070098471034AC42F6D3FFF774FD15
:10072000783300009833000080B584B02020039017
:1007300001F0A4FB41F60030C0F2B70000F0B4FDB8
:1007400049F2081EC0F2100E0290704600F05EF8EA
:100750004DF60000C0F2B850019000F0A5FDDDF8A4
:1007600004E00090704601F0A1FB019800F060FDEC
:1007700001210022039800F023FD49F20840C0F255
:10078000100000F043F840F20000C2F200000199AE
:10079000016004B080BD000080B582B04FF44570A8
:1007A00000F034F80B20C0F2010001F093FB41F699
:1007B0000030C0F2B7000190019B00204FF4E131FE
:1007C000012200F075FE009002B080BD80B586B0B9
:1007D0000D2000F06FF840F20110059041F2000E7C
:1007E000C4F2000E00211D22039070460291039B6B
:1007F000CDF804E001F024FB039804901E22019838
:100800000299039B01F01CFB06B080BD85B0014638
:10081000049040F26020C4F2000001900498B0F10E
:10082000004F009144D0FFE700200290FFE70298BC
:1008300001283CD8FFE70498002801D1FFE736E003
:1008400004986FF31F30ADF80C00BDF80C000028C1
:1008500025D0FFE7BDF80C008DF80F00BDF80C00A7
:1008600000F470604FF0FF3101EB10208DF80E00A6
:100870009DF80F003F2809D1FFE79DF80E00982151
:10088000C4F202010A681043086007E09DF80E00F8
:1008900001999DF80F2041F82200FFE7FFE7049837
:1008A00000130490FFE7029801300290BFE7FFE7D2
:1008B00005B0704783B00146ADF80A009DF80B0003
:1008C00001909DF80A00012202FA00F0019A40F21C
:1008D0002023C4F2000343F82200009103B07047C4
:1008E00083B00146ADF80A009DF80B0001909DF819
:1008F0000A00012202FA00F0019A40F22023C4F219
:10090000000343F82200009103B0704780B582B025
:100910000020019040F2A420C4F2000000680728E3
:10092000009015D80099DFE801F004080C131313A8
:10093000131000F093F801900BE000F031FB0190F0
:1009400007E000F05BFA019003E00020019000E076
:10095000FFE7019840F29431C4F20001096801F008
:1009600007010131B0FBF1F002B080BD80B584B069
:100970000146039000200290039840F26C22C4F2DA
:10098000000252F8200007280191009021D8009918
:10099000DFE801F004081F0C1014181C00F05EF8CA
:1009A000029017E000F0FCFA029013E000F026FA43
:1009B00002900FE000F014FA02900BE000F084FACD
:1009C000029007E000F0B4FA029003E000200290E9
:1009D00000E0FFE7029804B080BD000080B582B05F
:1009E0000020019040F28820C4F20000006807282F
:1009F000009025D80099DFE801F004080C101418C5
:100A00001C2000F02BF801901BE000F0C9FA0190C7
:100A100017E000F079F8019013E000F0EFF9019091
:100A20000FE000F0DDF901900BE000F0BFFA01905B
:100A300007E000F07DFA019003E00020019000E063
:100A4000FFE7019840F28431C4F2000109680122F5
:100A500052FA81F1B0FBF1F002B080BD80B582B0F6
:100A60000020019040F28420C4F2000000680328B6
:100A7000009045D80099DFE801F002373B3F40F293
:100A80008020C4F200000068002804D1FFE700F0D5
:100A900089F9019027E040F28020C4F2000000684C
:100AA000012804D1FFE700F02FF801901AE040F28E
:100AB0008020C4F200000068022804D1FFE700F0A3
:100AC0008FF901900DE040F28020C4F20000006830
:100AD000032804D1FFE700F091F9019000E0FFE75F
:100AE000FFE7FFE7FFE70CE000F05AFA019008E0AB
:100AF00000F05CFA019004E000F01AFA019000E0C6
:100B0000FFE7019802B080BD81B043F22000C4F23B
:100B100001000068C001002807D5FFE740F204008B
:100B2000C2F200000068009002E000200090FFE7A1
:100B3000009801B07047000080B584B00146039072
:100B4000002002900398019100F01AF80290029898
:100B5000039940F2203EC4F2000E5EF8211001F429
:100B60007F41039A5EF822204FF0010E5EFA82F276
:100B7000B1FBF2F10131B0FBF1F004B080BD000037
:100B800080B584B00146039000200290039840F2A3
:100B9000B022C4F2000252F8200007280191009010
:100BA0003BD80099DFE801F00408171B2A2E3236E3
:100BB000FFF754FF029031E000F0F2F940F2C43E3A
:100BC000C4F2000EDEF800E0012151FA8EF1B0FB14
:100BD000F1F0029022E000F0E5F802901EE000F053
:100BE0000DF940F2883EC4F2000EDEF800E001216B
:100BF00051FA8EF1B0FBF1F002900FE000F0F0F846
:100C000002900BE000F060F9029007E000F090F92C
:100C1000029003E00020029000E0FFE7029804B099
:100C200080BD000080B584B001468DF80F009DF8AE
:100C30000F0002461F280191009200F2AD8000993A
:100C4000DFE801F01014233B272B2F33374F533F9E
:100C500043474B575B60656A6F74797E83878C91DD
:100C6000969BA0A5FFF7FAFE029098E0FFF7F6FE2C
:100C700040F2803EC4F2000EDEF800E0012151FA9D
:100C80008EF1B0FBF1F0029089E0FFF7A7FE029031
:100C900085E0FFF73BFE029081E000F035FA02901C
:100CA0007DE000F065FA029079E000F07FF90290B3
:100CB00075E000F00FF9029071E000F09FF80290EB
:100CC0006DE000F06FF8029069E0FFF71DFF029001
:100CD00065E000F065F9029061E000F061FA0290D1
:100CE0005DE000F069F9029059E000F09DF9029092
:100CF00055E000F0E9F8029051E00020FFF71CFFFA
:100D000002904CE00120FFF717FF029047E002201D
:100D1000FFF712FF029042E00320FFF70DFF029061
:100D20003DE00420FFF708FF029038E00520FFF7C0
:100D300003FF029033E00620FFF7FEFE02902EE054
:100D40000720FFF7F9FE029029E000F075F8029005
:100D500025E00020FFF70AFE029020E00120FFF7C7
:100D600005FE02901BE00220FFF700FE029016E055
:100D70000320FFF7FBFD029011E00420FFF7F6FDD2
:100D800002900CE0002000F083F9029007E00120BF
:100D900000F07EF9029002E000200290FFE7029846
:100DA00004B080BD81B0B820C4F2020000688006A3
:100DB000002803D5FFE7002000900EE043F210006A
:100DC000C4F20100006800F4804000281CBF41F616
:100DD0000030C0F2B7000090FFE7009801B0704704
:100DE00040F61820C4F20000006800F0400000281F
:100DF0001CBF44F24020C0F20F00704781B0B82001
:100E0000C4F2020000688006002803D5FFE7002036
:100E100000900EE043F21000C4F20100006800F000
:100E2000804000281CBF4DF60000C0F2B850009072
:100E3000FFE7009801B0704780B582B000200190B4
:100E400040F2D020C4F2000000680728009037D894
:100E50000099DFE801F00408171B2A352E32FFF74E
:100E6000FDFD01902DE000F09BF840F2C43EC4F27D
:100E7000000EDEF800E0012151FA8EF1B0FBF1F036
:100E800001901EE0FFF78EFF01901AE0FFF7B6FF1A
:100E900040F2883EC4F2000EDEF800E0012151FA73
:100EA0008EF1B0FBF1F001900BE0FFF799FF01909C
:100EB00007E000F03DF8019003E00020019000E021
:100EC000FFE7019802B080BD40F25000C2F200007E
:100ED0000068704780B582B00020019040F2E020A9
:100EE000C4F2000000680028009008D0FFE70098D6
:100EF000012808D0FFE70098072808D00AE0FFF78C
:100F00007DFF019007E000F04BF8019003E0002026
:100F1000019000E0FFE7019840F2AC31C4F200011B
:100F20000968012252FA81F1B0FBF1F002B080BDF4
:100F300083B0B820C4F20200006800F04000013025
:100F400000280DD0FFE79820C4F2020000680121BC
:100F50000029029004D1FFE74FF4004001901CE00B
:100F6000B820C4F20200006800F0800000210130C7
:100F70000028009108D0FFE79820C4F20200006822
:100F800000F001000090FFE7009800F00100002849
:100F900018BF4FF400400190FFE7019803B070477D
:100FA00040F25400C2F200000068704740F258005E
:100FB000C2F200000068704780B582B00020019046
:100FC00040F2F020C4F200000068072800901DD80D
:100FD0000099DFE801F004080C101B141B18FFF740
:100FE0003DFD019013E0FFF7DBFF01900FE0FFF7FD
:100FF0008BFD01900BE0FFF701FF019007E0FFF789
:1010000063FF019003E00020019000E0FFE70198FA
:1010100040F2B431C4F200010968012252FA81F1B0
:10102000B0FBF1F002B080BD80B582B0002001902D
:1010300040F2F820C4F2000000680728009019D898
:101040000099DFE801F00408170C17101714FFF7D8
:1010500005FD01900FE0FFF7A3FF01900BE0FFF704
:10106000CDFE019007E0FFF7A1FF019003E0002013
:10107000019000E0FFE7019840F2BC31C4F20001AA
:101080000968012252FA81F1B0FBF1F002B080BD93
:1010900080B586B00146059040F20030C4F20000F1
:1010A000049000200390059840F26022C4F20002F0
:1010B00052F8200007280291019020D80199DFE81A
:1010C00001F00413171E1E1E1E1BFFF7C7FCDDF8E0
:1010D00010E005995EF821104FF0010E5EFA81F1E3
:1010E000B0FBF1F003900BE0FFF77AFE039007E00E
:1010F000FFF71EFF039003E00020039000E0FFE7EE
:10110000039806B080BD000080B582B00020019039
:1011100040F2A820C4F2000000680728009019D807
:101120000099DFE801F00408170C17101714FFF7F7
:1011300095FC01900FE0FFF733FF01900BE0FFF704
:101140005DFE019007E0FFF731FF019003E0002012
:10115000019000E0FFE7019840F29831C4F20001ED
:101160000968012252FA81F1B0FBF1F002B080BDB2
:1011700081B043F22000C4F20100006800020028A0
:1011800007D5FFE740F20400C2F2000000680090BB
:1011900002E000200090FFE7009801B070470000D7
:1011A00080B5FFF71DFE40F28C3EC4F2000EDEF863
:1011B00000E00EF03F0E0EF1010EB0FBFEF080BD20
:1011C00080B587B013468C4686468DF81B00059186
:1011D0008DF8132040F20030C4F2000003909DF817
:1011E0001300C00700280293CDF804C0CDF800E03A
:1011F00008D0FFE703989DF81B104FF0005240F80D
:101200002120FFE70598002808D1FFE703989DF803
:101210001B104FF0804240F8212007E0059801386C
:1012200003999DF81B2041F82200FFE707B080BD1D
:1012300080B584B0014603909DED030AB8EE400AE4
:1012400010EE100A0091FFF77AF941EC110B9FEDB7
:10125000142B53EC122B51EC110BFFF7FEF841EC61
:10126000110B51EC110BFFF77DF901909DED010A77
:10127000BCEEC00A8DED020A0298092803D3FFE7ED
:1012800008200290FFE740F20040C4F2000001682D
:10129000029A62F31031016004B080BD00BF00BF4C
:1012A000C19D76BEC028783E80B584B001460290CC
:1012B000029841F60032C0F2B7029042019113D079
:1012C000FFE7029846F60041C0F2DC2188420BD0CD
:1012D000FFE702984DF60001C0F2B851884203D0F2
:1012E000FFE7012003903DE040F24810C4F2000007
:1012F0004FF00061016040F22820C4F2000001605C
:10130000202000F0C7FD02984DF60001C0F2B85150
:10131000884209D1FFE743F21000C4F201000168DE
:1013200041F0804101601AE0029846F60041C0F2A7
:10133000DC21884209D1FFE743F21000C4F201002A
:10134000016841F40041016008E043F21000C4F27A
:101350000100016841F480410160FFE7FFE70020E0
:101360000390FFE7039804B080BD000070B592B011
:10137000DDF858C09E4614460D46064610900F9163
:101380000E920D938DF833C00020059010990491B2
:1013900004994A1C049208700E980028CDF80CE0BD
:1013A0000294019500963CD0FFE70F9800680B90DF
:1013B0000B98002809D1FFE70498302101700598A7
:1013C00001300590059811906FE0FFE70B98002819
:1013D00026D0FFE70B980D9990FBF1F00A900B983F
:1013E0000A990D9A01FB120009900998B0F1FF3F8C
:1013F00007DCFFE7099806900698C0433130099052
:1014000003E0099830300990FFE70A980B9009989B
:1014100004994A1C04920870059801300590D5E79C
:1014200040E00F98006808900898002809D1FFE76D
:1014300004983021017005980130059005981190AD
:1014400033E0FFE7089800282BD0FFE708980D99B4
:10145000B0FBF1F00790089807990D9A01FB120074
:1014600006900698092804D8FFE7069830300690C1
:101470000CE006989DF83310C9076122002918BFB7
:1014800041221044A0F10A000690FFE70798089057
:10149000069804994A1C049208700598013005903A
:1014A000D0E7FFE705981190FFE7119812B070BDE3
:1014B000B0B596B09C4696460C4605468DF853004E
:1014C00013918DF84B20119343F221500C901198F9
:1014D00008901398099000208DF828008DF82900B5
:1014E0009DF853008DF82A0001208DF82B008DF80F
:1014F0002C009DF84B008DF83C009DF84B00012816
:10150000CDF81CC0CDF818E00594049503D1FFE791
:1015100008A8109012E09DF84B00022803D1FFE7C5
:101520000C98159071E09DF84B00032803D1FFE75C
:101530000C98159069E00C98159066E040F25C00FC
:10154000C2F2000000211C220390FEF776FF0399EF
:1015500009610A6940F24C0EC2F2000ECEF800207A
:101560000A690DA90290104600F030FD0C900C980D
:10157000002801D1FFE70BE043F24E30C0F200003B
:1015800043F21B31C0F2000140F24B2201F012FC89
:1015900040F25C00C2F2000001691430019008467C
:1015A000019900F0AFFD0C900C98002801D1FFE7E5
:1015B0000BE043F24E30C0F2000043F21B31C0F2A8
:1015C000000140F2572201F0F5FB40F25C00C2F24C
:1015D00000000169183000900846009900F044FDB1
:1015E0000C900C98002801D1FFE70BE043F24E303D
:1015F000C0F2000043F21B31C0F2000140F262224F
:1016000001F0D8FB00201590FFE7159816B0B0BD8B
:10161000B0B58AB09C4696460C460546099008919E
:101620008DF81F20069300200590CDF810C0CDF84E
:101630000CE002940195FFE705980699884221DAAB
:10164000FFE708980068013080280CD3FFE709986D
:101650000899096800F050F808994FF0000EC1F899
:1016600000E00090FFE79DF81F000999089A1268B2
:1016700088540898016801310160FFE7059801303E
:101680000590D9E70AB0B0BD83B080B5A7B02B9361
:101690002A9229910146259000202390229002A8A9
:1016A000802201911146FEF7C6FE40F24C00C2F2C4
:1016B00000000068002803D1FFE70020269014E016
:1016C00029A824902598249941F21163C0F20003BF
:1016D00002AA009200F098FE23902399009800F04F
:1016E0000BF8229022982690FFE7269827B0BDE8B5
:1016F000804003B07047000080B586B00A460346BC
:101700000590049143F2215003900598002802921D
:10171000019301D0FFE70BE043F24330C0F2000039
:1017200043F21B31C0F2000140F26D1201F042FBA6
:101730000498002801D0FFE70BE043F23930C0F2F3
:10174000000043F21B31C0F200014FF4B77201F008
:1017500031FB049A059940F25C00C2F2000014309B
:1017600000F09AFD03900398002803D1FFE7049846
:10177000009003E04FF0FF300090FFE7009806B0C4
:1017800080BD000080B582B040F29C00C2F2000033
:101790000068002801D0FFE70AE043F23010C0F2F1
:1017A000000043F2F011C0F20001AF2201F002FB91
:1017B00040F29C00C2F20000006842F6A871C0F23C
:1017C0000001096840F27802C2F20002126801903A
:1017D00008461146019A904702B080BD80B582B09C
:1017E00040F29C00C2F200004068002801D0FFE7F0
:1017F0000AE043F24810C0F2000043F2F011C0F2D8
:101800000001BC2201F0D6FA40F29C00C2F20000B6
:10181000406842F6A871C0F20001496840F27802BF
:10182000C2F200025268019008461146019A9047A0
:1018300002B080BD80B582B040F29C00C2F20000D0
:101840008068002801D0FFE70AE043F26010C0F290
:10185000000043F2F011C0F20001C92201F0AAFA1F
:1018600040F29C00C2F20000806842F6A871C0F20B
:101870000001896840F27802C2F200029268019089
:1018800008461146019A904702B080BD80B582B0EB
:1018900040F29C00C2F20000C068002801D0FFE7BF
:1018A0000AE043F27810C0F2000043F2F011C0F2F7
:1018B0000001D62201F07EFA40F29C00C2F2000044
:1018C000C06842F6A871C0F20001C96840F278020F
:1018D000C2F20002D268019008461146019A904770
:1018E00002B080BD80B582B040F29C00C2F2000020
:1018F0000069002801D0FFE70AE043F29010C0F22F
:10190000000043F2F011C0F20001E32201F052FAAC
:1019100040F29C00C2F20000006942F6A871C0F2D9
:101920000001096940F27802C2F2000212690190D6
:1019300008461146019A904702B080BD80B582B03A
:1019400040F29C00C2F200004069002801D0FFE78D
:101950000AE043F2A810C0F2000043F2F011C0F216
:101960000001F12201F026FA40F29C00C2F20000D0
:10197000406942F6A871C0F20001496940F278025C
:10198000C2F200025269019008461146019A90473E
:1019900002B080BD80B582B040F29C00C2F200006F
:1019A0008069002801D0FFE70AE043F2C010C0F2CE
:1019B000000043F2F011C0F20001FE2201F0FAF93A
:1019C00040F29C00C2F20000806942F6A871C0F2A9
:1019D0000001896940F27802C2F200029269019026
:1019E00008461146019A904702B080BD80B582B08A
:1019F00040F29C00C2F20000C069002801D0FFE75D
:101A00000BE043F2D810C0F2000043F2F011C0F234
:101A1000000140F20B1201F0CDF940F29C00C2F23D
:101A20000000C06942F6A871C0F20001C96940F225
:101A30007802C2F20002D269019008461146019A6A
:101A4000904702B080BD000084B0014603900020A2
:101A500002900191FFE70298082813DCFFE7039842
:101A6000029942F6A872C0F2000252F82110884290
:101A700003D1FFE7029804B07047FFE702980130F6
:101A80000290E8E743F20720C0F2000043F2F011B1
:101A9000C0F200015F2201F08DF9000080B586B030
:101AA0000A46034604908DF80F10049801920093A3
:101AB000FFF7CAFF02900298B0F1FF3F03DCFFE797
:101AC0000420059019E0029842F6CC71C0F20001A2
:101AD00031F81000FEF704FF029842F6E071C0F200
:101AE000000151F8200000F02DFA04989DF80F1025
:101AF000002200F041F80590FFE7059806B080BD90
:101B000085B00A46034603908DF80B109DF80B0034
:101B100000280192009304D1FFE701208DF8130003
:101B200025E09DF80B00042810DCFFE70398D0F8AF
:101B3000F80F9DF80B100331012202FA01F1084061
:101B4000002818BF01208DF8130010E09DF80B004D
:101B5000052808D1FFE70398D0F8F80FC0F3C010AC
:101B60008DF8130003E000208DF81300FFE79DF8C7
:101B7000130005B07047000080B588B013468C464E
:101B8000864606908DF81710049206989DF8171057
:101B90000393CDF808C0CDF804E0FFF7B1FF0028AB
:101BA00003D1FFE70320079028E00698D0F8F80F4C
:101BB000000700280DD5FFE70698D0F8F80F00F0D1
:101BC00007009DF81710884203D0FFE70120079017
:101BD00014E00498002808D0FFE79DF8170040F0B3
:101BE00008000699C1F8F80F05E09DF8170006995E
:101BF000C1F8F80FFFE700200790FFE7079808B04B
:101C000080BD000083B0014601900198002800913A
:101C100004D1FFE70020ADF80A0004E042F6AF70FF
:101C2000ADF80A00FFE7BDF80A0003B070470000F6
:101C300080B58CB00A4603460A9009910A9800289C
:101C40000392029301D0FFE70AE043F25200C0F290
:101C5000000043F21111C0F20001DD2201F0AAF8E8
:101C60000998002801D0FFE70AE043F2E920C0F21A
:101C7000000043F21111C0F20001DE2201F09AF8D7
:101C80000998007B072801D8FFE70AE043F2A0008B
:101C9000C0F2000043F21111C0F20001DF2201F096
:101CA00089F80998007B42F68871C0F2000151F86A
:101CB0002000002801D0FFE70AE043F2E700C0F26D
:101CC000000043F21111C0F20001E02201F072F8AD
:101CD00005A800F0ADFD0998406805900998007AC4
:101CE000012804D1FFE702208DF818000DE00998C3
:101CF000007A022804D1FFE703208DF8180003E0E2
:101D000000208DF81800FFE7FFE70998407A0128C6
:101D100004D1FFE701208DF8190003E000208DF8C1
:101D20001900FFE70998807A002818BF01208DF874
:101D30001C000998C07A002818BF01208DF81D00EA
:101D40004FF000008DF81E008DF81F000998017BF0
:101D500042F68872C0F2000252F82110026805A80B
:101D600001900846019900F09BFD0490049800281A
:101D700006D0FFE70498FFF745FFADF82E0009E015
:101D80000A9808900998007B089908700020ADF81F
:101D90002E00FFE7BDF82E000CB080BD80B588B0E6
:101DA00013468C46864607900691059207980028B0
:101DB0000393CDF808C0CDF804E001D0FFE70BE0B5
:101DC00043F25200C0F2000043F21111C0F20001D0
:101DD00040F2451200F0EEFF0698002801D0FFE720
:101DE0000BE043F20C10C0F2000043F21111C0F2FC
:101DF00000014FF4A37200F0DDFF0598002801D028
:101E0000FFE70BE043F25900C0F2000043F211116A
:101E1000C0F2000140F2471200F0CCFF0798049096
:101E20000498007842F68871C0F2000151F8200051
:101E30000699059A00F058FF002008B080BD000008
:101E4000B0B587B09C4696460C46054606908DF880
:101E500017108DF816200493049806999DF8172002
:101E600001EBC2119DF8162041F82200CDF80CC0FC
:101E7000CDF808E00194009507B0B0BD82B00146EE
:101E800001900198C822C4F202021060009102B0D1
:101E90007047000082B0014601900198C822C4F248
:101EA00002021060009102B07047000007498842AA
:101EB0009CBF40F24C4000F0E3BF0549884294BF0C
:101EC00040F27E404FF4966000F0DABF00E1F50585
:101ED00080A4BF0786B001460590BDF816000490A7
:101EE000BDF8140003900398012202FA00F002905A
:101EF00003981F28019101D8FFE70AE043F221204F
:101F0000C0F2000043F20D21C0F20001492200F0AE
:101F100051FF0298049940F24012C4F2000242F8C4
:101F20002100FFE70298049940F20012C4F2000277
:101F300052F82110029A1140884201D1FFE7F1E7DF
:101F400006B0704780B582B00146019001980091BB
:101F500000F006F80198FFF7BDFF02B080BD000059
:101F600086B001460590BDF816000490BDF8140037
:101F700003900398012202FA00F0029003981F28B0
:101F8000019101D8FFE70AE043F22120C0F20000EE
:101F900043F20D21C0F20001302200F00BFF029845
:101FA000049940F22012C4F2000242F82100FFE737
:101FB000049840F20011C4F2000151F82000029987
:101FC000084201D1FFE7F3E706B0704780B588B05B
:101FD0000A4603460790069143F22150ADF81200DD
:101FE000069800280392029301D0FFE70BE043F22A
:101FF000E920C0F2000043F20401C0F2000140F207
:102000000A3200F0D7FE0798002801D0FFE70BE066
:1020100043F24500C0F2000043F20401C0F20001A7
:1020200040F20F3200F0C6FE079805900598002197
:102030001022FEF702FA0699097A059A1173069999
:10204000097A0129019009D1FFE70598083006991E
:10205000C96800F035F9ADF8120000E0FFE7BDF8FF
:10206000120008B080BD000080B58AB00A46034661
:1020700008900791089800280492039301D0FFE785
:102080000BE043F24500C0F2000043F20401C0F24D
:10209000000140F2D93200F08DFE0798002801D0EF
:1020A000FFE70BE043F22E00C0F2000043F2040110
:1020B000C0F2000140F2DA3200F07CFE089806908F
:1020C0000798059006980068002805D0FFE743F2BE
:1020D0002250ADF8260010E007980021042202915A
:1020E000FEF7ABF90599069A11600699059A1160F9
:1020F0000299ADF826100190FFE7BDF826000AB05E
:1021000080BD000080B588B00A460346079006915E
:10211000079800280392029301D0FFE70BE043F2F7
:102120004500C0F2000043F20401C0F2000140F299
:10213000A63200F03FFE0698002801D0FFE70BE032
:1021400043F23900C0F2000043F20401C0F2000182
:1021500040F2A73200F02EFE0798059006980490F2
:102160000698002104220191FEF767F905994A6853
:1021700001324A600599049A11600199009008465D
:1021800008B080BDB0B58AB09C4696460C46054660
:10219000099008910792069343F22150ADF816007A
:1021A00008980028CDF810C0CDF80CE002940195F5
:1021B00010D0FFE70998007B012809D1FFE70998B3
:1021C00008300799069A00F0D5F8ADF8160000E03F
:1021D000FFE7FFE7BDF816000AB0B0BD80B588B0D4
:1021E00013468C468646079006910592079800286C
:1021F0000293CDF804C0CDF800E001D0FFE70BE07A
:1022000043F23900C0F2000043F20401C0F20001C1
:1022100040F2E72200F0CEFD0698002801D0FFE74B
:102220000BE043F26000C0F2000043F20401C0F290
:1022300000014FF43A7200F0BDFD0598002801D06E
:10224000FFE70BE043F25900C0F2000043F2040143
:10225000C0F2000140F2E92200F0ACFD07980490C2
:102260000498006803900398002801D0FFE70BE072
:1022700043F25200C0F2000043F20401C0F2000138
:1022800040F2EE2200F096FD03980499069A059B11
:10229000FFF778FF08B080BD80B586B013468C4646
:1022A000864605900491039205980499039A029337
:1022B000CDF804C0CDF800E0FFF790FF06B080BD78
:1022C00080B58CB00A4603460A9009910998002807
:1022D0000292019301D0FFE70AE043F29300C0F2BB
:1022E000000043F26701C0F200018A2200F062FDA3
:1022F0000A98002801D0FFE70AE043F24500C0F247
:10230000000043F26701C0F200018B2200F052FD91
:10231000099807900A9808900798406804900798D1
:10232000007A8DF814000798407A8DF81500079808
:10233000C07A8DF816000798007B8DF81700079873
:10234000006803900798807A8DF81800089803A910
:10235000FFF76EFC002805D0FFE743F22150ADF8EF
:102360002E0003E00020ADF82E00FFE7BDF82E00A0
:102370000CB080BD80B588B013468C468646079069
:1023800006910592079800280393CDF808C0CDF870
:1023900004E001D0FFE70BE043F24500C0F200008B
:1023A00043F26701C0F2000140F20D1200F002FD9D
:1023B0000698002801D0FFE70BE043F26000C0F26E
:1023C000000043F26701C0F200014FF4877200F091
:1023D000F1FC0598002801D0FFE70BE043F259001B
:1023E000C0F2000043F26701C0F2000140F20F1298
:1023F00000F0E0FC0798049004980699059AFFF70E
:10240000CDFC08B080BD0000B0B5AAB09C46964691
:102410000C460546299128902792269300201A9071
:10242000199017908DF84A00109028982590CDF8B3
:102430003CC0CDF838E00D950C94FFE72598007866
:102440002490002800F0C081FFE7249825280FD0B1
:10245000FFE7269827999DF8902017AB4FF0010CC5
:102460000B90084619466346DDF82CC0E047A7E10B
:1024700001208DF84B00002016901890FFE7189867
:1024800000281DD1FFE72598411C25914078249014
:10249000249830280DDBFFE72498392809DCFFE772
:1024A000169800EB8000249901EB4000303816901C
:1024B00005E025980138259001201890FFE7DEE718
:1024C000062015902598411C259140782E2826D16C
:1024D000FFE7002015901890FFE7189800281DD1FD
:1024E000FFE72598411C25914078249024983028B6
:1024F0000DDBFFE72498392809DCFFE7159800EB8E
:102500008000249901EB40003038159005E02598B3
:102510000138259001201890FFE7DEE703E02598B9
:1025200001382590FFE72598411C2591407824909B
:102530002498642825D0FFE72498692821D0FFE754
:10254000249866281DD0FFE72498462819D0FFE775
:102550002498782815D0FFE72498582811D0FFE751
:1025600024986F280DD0FFE72498622809D0FFE750
:102570002498702805D0FFE72498752840F0BF8084
:10258000FFE72498642804D0FFE72498692819D12C
:10259000FFE72998011D2991006811909DF84B00D3
:1025A00000F00100694608600DF16F0011A90122D9
:1025B0000A230A90FEF7DAFE199019980A9908443E
:1025C0001A90FFE72498582804D0FFE72498782829
:1025D00021D1FFE72498782804D1FFE700208DF867
:1025E0004B00FFE72998011D2991006810909DF884
:1025F0004B0000F00100694608600DF16F0010A962
:10260000002210230990FEF7B1FE1990199809993C
:1026100008441A90FFE724986F280CD0FFE724980D
:10262000622808D0FFE72498702804D0FFE7249898
:10263000752838D1FFE72998011D2991006810906D
:1026400024986F2804D1FFE708208DF84A0015E090
:102650002498622804D1FFE702208DF84A000CE09C
:102660002498702804D1FFE710208DF84A0003E079
:102670000A208DF84A00FFE7FFE7FFE79DF84A30A0
:102680009DF84B0000F00100694608600DF16F00F5
:1026900010A900220890FEF769FE19901998089970
:1026A00008441A90FFE726982799169A199BD31A7F
:1026B00017AA4FF0200C0790084611466246DDF835
:1026C0001CC0E0471A98002818D0FFE7FFE71A98C7
:1026D0000078002811D0FFE7269827991A9A531EF0
:1026E0001A93127817AB4FF0010C06900846194662
:1026F0006346DDF818C0E047E9E7FFE75FE02498AC
:10270000632814D1FFE72998011D299100781390BF
:10271000269827999DF84C2017AB4FF0010C059097
:10272000084619466346DDF814C0E04746E02498A1
:10273000732833D1FFE72998011D2991006814906F
:102740001498002829D0FFE71498FDF77FFE199010
:102750002698DDF89CE01699199A8B1A17A9202261
:1027600004907046DDF810E0F047FFE71498007819
:10277000002811D0FFE726982799149A531C149328
:10278000127817AB4FF0010C0390084619466346C8
:10279000DDF80CC0E047E9E7FFE70EE0269827994F
:1027A0009DF8902017AB4FF0010C02900846194697
:1027B0006346DDF808C0E047FFE7FFE7FFE7FFE714
:1027C00025980130259039E617982AB0B0BD000051
:1027D00080B54EF68850CEF20000016841F47001D9
:1027E0000160016841F00F0101604EF68C50CEF29D
:1027F0000000016840F603421143016040F200000E
:10280000C0F200004EF60851CEF20001086040F21E
:102810000830C4F200000021016040F22020C4F220
:1028200000007821016000F001F880BD70470000D1
:1028300080B584B00146039003980028029101D02E
:10284000FFE70BE043F2E120C0F2000043F2CD21AC
:10285000C0F2000140F20D1200F0ACFA0398002122
:102860000C220191FDF7E9FD03994FF4E1320A6072
:102870000399019A0A7103994A7103994FF0010E65
:1028800081F806E00399CA7103990A7203994A72A2
:1028900003998A720399CA72009004B080BD000047
:1028A00080B58AB013468C468646089007910692FA
:1028B000089800280493CDF80CC0CDF808E009D0A2
:1028C000FFE70798002805D0FFE70698002801D009
:1028D000FFE70AE043F25220C0F2000043F2CD21AC
:1028E000C0F20001B72200F065FA08980121002823
:1028F00001910CD0FFE7079801210028019106D033
:10290000FFE70698B0FA80F040090190FFE70198D0
:1029100008990029009008D0FFE70798002804D004
:10292000FFE70698002803D1FFE70420099080E024
:1029300008980121FFF7B2F805900598002803D008
:10294000FFE70598099074E0089807990968069AC6
:1029500000F022F905900598002803D0FFE70598BC
:10296000099066E00798407AC007002821D0FFE769
:102970000898D0F8001E41F00111C0F8001E089818
:10298000D0F8081E21F47061C0F8081E0798807AFC
:1029900000F00F000899D1F8082E42EA0020C1F893
:1029A000080E0898D0F8081E41F00101C0F8081E72
:1029B000FFE70798007AC007002821D0FFE70898B2
:1029C000D0F8001E41F00211C0F8001E0898D0F89F
:1029D000081E21F47021C0F8081E0798C07A00F084
:1029E0000F000899D1F8082E42EA0040C1F8080EFD
:1029F0000898D0F8081E41F00201C0F8081EFFE751
:102A00000798017942798379C0794FF0400C0CEA3C
:102A1000821261F3051203F0030142EA810100F022
:102A2000010041EAC0300130089908600020099097
:102A3000FFE709980AB080BD80B58AB013468C467E
:102A40008646089007910692089800280493CDF8CE
:102A50000CC0CDF808E005D0FFE70798002801D0AA
:102A6000FFE70BE043F22E20C0F2000043F2CD213D
:102A7000C0F200014FF4CA7200F09CF908980121DD
:102A80000028019106D0FFE70798B0FA80F04009CE
:102A90000190FFE7019808990029009004D0FFE712
:102AA0000798002803D1FFE70420099070E00898F8
:102AB000D0F8000E8007002803D4FFE7012009901A
:102AC00066E0FFE7069800285FD0FFE7FFE7089879
:102AD000D0F8040E4006002801D4FFE7F7E7089875
:102AE000806805909DF815008006002809D5FFE74D
:102AF0000898816841F40051816041F24F6009906B
:102B000046E09DF815004006002809D5FFE7089823
:102B1000816841F48041816041F25060099037E062
:102B20009DF815000006002809D5FFE70898816880
:102B300041F40041816041F24E60099028E008981C
:102B4000D0F8040E8007002812D5FFE70898D0F8C7
:102B5000001E41F40031C0F8001E0898D0F8041E91
:102B600041F00201C0F8041E41F24D6009900FE0EF
:102B70000898D0F8300E0799087007980130079030
:102B8000FFE70698013806909CE700200990FFE7D0
:102B900009980AB080BD000080B592B013468C46FB
:102BA000864610900F910E924FF0FF300D900F213E
:102BB0000C910B90109800280693CDF814C0CDF816
:102BC00010E009D0FFE70F98002805D0FFE70E9826
:102BD000002801D0FFE70BE043F28E20C0F2000096
:102BE00043F2CD21C0F200014FF49A7200F0E2F8F6
:102BF00010980121002803910CD0FFE70F980121C4
:102C00000028039106D0FFE70E98B0FA80F0400943
:102C10000390FFE7039810990029029008D0FFE77E
:102C20000F98002804D0FFE70E98002803D1FFE793
:102C30000420119054E00C980A90FFE70A980828A5
:102C40003CD3FFE70E980A9901310F9A01FB02F17C
:102C5000B0FBF1F0013809900998B0F5803F01D33D
:102C6000FFE727E00E980A990131099A013201FB2A
:102C700002F1B0FBF1F007900F980799884205D256
:102C8000FFE707980F99401A019004E00F98079901
:102C9000401A0190FFE70198089008980D99884222
:102CA00007D2FFE708980D900A980C9009980B90AE
:102CB000FFE7FFE70A9801380A90BFE70B98B0F5E5
:102CC000803F04D3FFE741F25160119008E00C9877
:102CD000109988620B981099086200201190FFE704
:102CE000119812B080BD000080B588B013468C46A4
:102CF0008646079006910592079800280493CDF820
:102D00000CC0CDF808E005D0FFE70698002801D0F8
:102D1000FFE70BE043F22E20C0F2000043F2CD218A
:102D2000C0F2000140F2671200F044F80798012158
:102D30000028019106D0FFE70698B0FA80F040091C
:102D40000190FFE7019807990029009004D0FFE760
:102D50000698002801D1FFE72AE00798D0F8000E76
:102D6000C007002801D1FFE722E0FFE7059800280F
:102D700016D0FFE7FFE70798D0F8040E800600287A
:102D800001D4FFE7F7E7069800780799C1F8200E0D
:102D9000069801300690FFE7059801380590E5E7B1
:102DA000FFE7079880680007002801D4FFE7F8E7ED
:102DB00008B080BD88B013468C46864607900691C1
:102DC00005920799069A059843F2F024C0F2000490
:102DD00004902046049C03932346CDF808C0CDF808
:102DE00004E0FEF751FC0090FFE700BEFDE70000A5
:102DF00080B58EB04FF44570FDF708FDFDF7E6FC99
:102E0000FDF792FCFDF7C8FC09A80890FFF710FD3C
:102E10004FF4E130099001208DF82D008DF82C0041
:102E20001020FDF7FFFE46F2000EC4F2080E0790D8
:102E300070460899079ACDF818E0FFF731FD40F287
:102E40000801C2F200014122DDF818E00590704649
:102E5000FFF74AFFFFE746F20000C4F208000DF159
:102E600033010122049003910292FFF7E5FD0499DA
:102E7000019008460399029AFFF736FFEBE700003E
:102E800080B540F2B731884205D24FF0000C4FF4C4
:102E9000705E0A2254E0B0F5747F05D24FF4003C16
:102EA0004FF4884E0C224BE0B0F57A7F05D84FF4F2
:102EB000802C4FF4984E0E2242E040F202418842AC
:102EC00005D24FF4C02C4FF4B04E112238E040F23E
:102ED0001B41884205D24FF4002C4FF4C84E1422F7
:102EE0002EE040F23441884205D24FF4202C4FF4BA
:102EF000D84E162224E040F24D41884205D24FF4CC
:102F0000402C4FF4E84E18221AE040F26641884205
:102F100005D24FF4602C4FF4F04E1B2210E040F22B
:102F20007F41884202D24FF4801C06E04FF4A01C7F
:102F3000B0F5936F38BF4FF4901C4FF4F84E1E223B
:102F4000084BD96847F61F4021EA00004EEA02010B
:102F50000843D860186820F4F01040EA0C001860AC
:102F600080BD00BF1000024002E008C8121F08C167
:102F7000002AFAD170477047002001E001C1121FFA
:102F8000002AFBD170470000006008400070084034
:102F9000008008400090084000A008400060094000
:102FA000007009400080094000600840007008403F
:102FB000008008400090084000A0084000600940E0
:102FC000007009400080094000F009400B010C012D
:102FD0000D010E010F011001110112011C02000070
:102FE0000B0001000C0001000D0001000E000100AB
:102FF0000F0001001000010011000100120001008B
:103000001C000200636F6D706F6E656E742F7365C8
:103010007269616C5F6D616E616765722F73657255
:1030200069616C5F6D616E616765722E63007265C8
:10303000616448616E646C650077726974654861AB
:103040006E646C650073657269616C48616E646C76
:10305000650068616E646C65006C656E677468001D
:1030600062756666657200636F6D706F6E656E7413
:103070002F73657269616C5F6D616E616765722F38
:1030800073657269616C5F706F72745F7561727481
:103090002E630073657269616C436F6E66696700C9
:1030A000636F6E6669672D3E696E7374616E6365EA
:1030B000203C202873697A656F6628735F557361B9
:1030C0007274416461707465724261736529202F66
:1030D0002073697A656F662855534152545F54795D
:1030E0007065202A292900735F55736172744164E9
:1030F0006170746572426173655B636F6E66696768
:103100002D3E696E7374616E63655D006461746108
:1031100000636F6D706F6E656E742F756172742FC2
:1031200075736172745F616461707465722E63009F
:10313000735F666C6578636F6D6D49727148616E1F
:10314000646C65725B305D00735F666C6578636F9D
:103150006D6D49727148616E646C65725B315D00C2
:10316000735F666C6578636F6D6D49727148616EEF
:10317000646C65725B325D00735F666C6578636F6B
:103180006D6D49727148616E646C65725B335D0090
:10319000735F666C6578636F6D6D49727148616EBF
:1031A000646C65725B345D00735F666C6578636F39
:1031B0006D6D49727148616E646C65725B355D005E
:1031C000735F666C6578636F6D6D49727148616E8F
:1031D000646C65725B365D00735F666C6578636F07
:1031E0006D6D49727148616E646C65725B375D002C
:1031F000647269766572732F66736C5F666C65784E
:10320000636F6D6D2E630066616C73650064726937
:10321000766572732F66736C5F72657365742E6367
:1032200000626974506F73203C203332750021288E
:10323000284E554C4C203D3D206261736529207C11
:103240007C20284E554C4C203D3D20646174612902
:1032500029002128284E554C4C203D3D20626173A9
:103260006529207C7C20284E554C4C203D3D206318
:103270006F6E66696729207C7C202830203D3D20C8
:10328000737263436C6F636B5F487A29290021284E
:10329000284E554C4C203D3D206261736529207CB1
:1032A0007C202830203D3D20626175647261746528
:1032B0005F42707329207C7C202830203D3D2073A4
:1032C0007263436C6F636B5F487A2929006472698B
:1032D000766572732F66736C5F75736172742E639B
:1032E000004E554C4C20213D20636F6E666967008F
:1032F000415353455254204552524F5220222025CB
:103300007320223A2066696C652022257322204CA6
:10331000696E652022256422200A007574696C6933
:10332000746965732F66736C5F64656275675F634C
:103330006F6E736F6C652E63003020213D207369C2
:103340007A65004E554C4C20213D206368006B533C
:1033500074617475735F53657269616C4D616E6100
:103360006765725F53756363657373203D3D2073BA
:103370007461747573000000983300000000002031
:103380004C000000682F0000E43300004C000020D7
:1033900074000000782F0000001BB7000024F40028
:1033A000557361727420706F6C6C696E67206578FC
:1033B000616D706C650D0A426F6172642077696C93
:1033C0006C2073656E64206261636B207265636557
:1033D0006976656420636861726163746572730DF8
:0433E0000A000000DF
:0400000500000201F4
:00000001FF
